:100000000C9434000C9451000C9451000C94510049
:100010000C9451000C9451000C9451000C9451001C
:100020000C9451000C9451000C9451000C9451000C
:100030000C9451000C9451000C9451000C945100FC
:100040000C9451000C9451000C9451000C945100EC
:100050000C9451000C9451000C9451000C945100DC
:100060000C9451000C94510011241FBECFEFD8E026
:10007000DEBFCDBF11E0A0E0B1E0E8E7F5E002C0EF
:1000800005900D92A830B107D9F721E0A8E0B1E0C2
:1000900001C01D92A031B207E1F70E94C6010C9485
:1000A000BA020C940000569A84B5806884BD84B569
:1000B0008F7B84BD84B5816084BD84B5826084BD3E
:1000C00085B5877F85BD85B5846085BD85B58D7F08
:1000D00085BD85B5816085BD88E287BD089583E3D0
:1000E0008093C4001092C5008EE08093C20088E126
:1000F0008093C10008959091C00095FFFCCF80933C
:10010000C6000895CF93DF93EC018991882319F0FD
:100110000E947B00FACFDF91CF9108958091C000BB
:1001200087FFFCCF8091C60080930A0108950E944A
:10013000A0010E94C101813019F08F3F39F008956C
:100140008091000190910101019705C0809100010B
:10015000909101010196909301018093000108950F
:10016000CF93DF93E9011A821B821C821D821982C0
:1001700018829695982F8827979587959F838E83C9
:100180009B013695322F2227379527953987288767
:100190005695542F4427579547955B874A87BC014E
:1001A0006F5F7F4F8FEF9FE70E94DF017D876C8736
:1001B0002F5F3F4F032E000C440B550B6FEF7FEF6B
:1001C0008FEF9FE30E94F3012E873F87488B598B67
:1001D000DF91CF910895EF92FF920F931F93CF93EA
:1001E000DF938B01FA019C01261B370B84859585D3
:1001F0008217930784F09195819591092817390703
:100200006CF086819781289FE001299FD00D389F4F
:10021000D00D112405C0CFEFDFE702C0C1E0D0E868
:10022000C901330FAA0BBB0B4281538164817581D5
:100230009A01AB01280F391F4A1F5B1F86859785DE
:10024000A089B18982179307A407B5074CF482836C
:100250009383A483B5836FEF7FEF8FEF9FE31DC080
:10026000B095A095909581959F4FAF4FBF4F2817A0
:1002700039074A075B074CF482839383A483B583D1
:1002800061E070E080E090EC08C022833383448317
:100290005583A085B1850E94120220813181201BE7
:1002A000310BA285B3852A9F70012B9FF00C3A9FDA
:1002B000F00C1124118300838E01DD0F220B330B10
:1002C000AB01BC01400F511F621F731FC7010F2CF0
:1002D000000CAA0BBB0B8A019B01080F191F2A1FD8
:1002E0003B1FC901B80120E830E040E050E00E9427
:1002F000F301213010E831071FEF4107510724F4C3
:1003000021E030E84FEF5FEFDA01C901811520E805
:100310009207A105B10524F08FEF9FE7A0E0B0E0C0
:10032000CDB7DEB7E6E00C942602FC011282138200
:100330001482158208953A983B98429A439A0895F8
:1003400086B182FB222720F933992260909108011F
:10035000622F70E0492F437050E06417750781F0F9
:1003600034E0939FC0011124822B80930801813EC9
:1003700011F481E003C0823D19F48FEF80930901ED
:100380000895809109011092090108950E949B012E
:100390000E946F000E94970082E091E00E9482001C
:1003A00080910001909101014AE06BE071E00E94B0
:1003B00085020E9482008DE00E947B00EBCF97FBBC
:1003C000072E16F4009407D077FD09D00E9435025D
:1003D00007FC05D03EF4909581959F4F0895709548
:1003E00061957F4F0895052E97FB1EF400940E949F
:1003F0000A0257FD07D00E94490207FC03D04EF4C1
:100400000C940A0250954095309521953F4F4F4FDF
:100410005F4F089590958095709561957F4F8F4FB0
:100420009F4F0895B7FF0C946B020E946B02821BD2
:10043000930B08952A88398848885F846E847D8468
:100440008C849B84AA84B984C884DF80EE80FD807C
:100450000C811B81AA81B981CE0FD11D0FB6F894F2
:10046000DEBF0FBECDBFED010895AA1BBB1B51E13E
:1004700007C0AA1FBB1FA617B70710F0A61BB70B14
:10048000881F991F5A95A9F780959095BC01CD01B9
:100490000895A1E21A2EAA1BBB1BFD010DC0AA1FC5
:1004A000BB1FEE1FFF1FA217B307E407F50720F0DD
:1004B000A21BB30BE40BF50B661F771F881F991F58
:1004C0001A9469F760957095809590959B01AC01A1
:1004D000BD01CF0108950E947602A59F900DB49FA3
:1004E000900DA49F800D911D11240895A29FB0012D
:1004F000B39FC001A39F700D811D1124911DB29F58
:10050000700D811D1124911D0895BB274A3031F4CF
:10051000992322F4BDE2909581959F4F0C9491020E
:10052000BB27FB015527AA27880F991FAA1FA417CD
:1005300010F0A41B83955051B9F7A05DAA3308F0C1
:10054000A95DA193009779F7B111B1931192CB01F5
:100550000C94AA02DC01FC01672F71917723E1F76B
:10056000329704C07C916D9370836291AE17BF0780
:08057000C8F30895F894FFCFD1
:0805780028004F4B44410A002A
:00000001FF
