:100000000C9434000C9451000C9451000C94510049
:100010000C9451000C9451000C9451000C9451001C
:100020000C9451000C9451000C9451000C9451000C
:100030000C9451000C9451000C9451000C945100FC
:100040000C9451000C9451000C9451000C945100EC
:100050000C9451000C9451000C9451000C945100DC
:100060000C9451000C94510011241FBECFEFD8E026
:10007000DEBFCDBF11E0A0E0B1E0E8E6F8E002C0ED
:1000800005900D92AA30B107D9F721E0AAE0B1E0BE
:1000900001C01D92AE30B207E1F70E9459020C94E4
:1000A00032040C9400003898ECE7F0E01082808174
:1000B0008E7F808380818D7F808380818B7F808312
:1000C0008081877F8083808180648083EAE7F0E09D
:1000D000108280818E7F8083808182608083808196
:1000E0008B7F80838081806880830895569A84B551
:1000F000816084BD84B5826084BD85B5877F85BD00
:1001000084B5806484BD84B5806884BD85B5826013
:1001100085BD85B5846085BD0895569A84B5816096
:1001200084BD84B5826084BD85B5877F85BD84B577
:10013000806184BD84B5806284BD08950E9476008C
:100140000E948D0080E488BD0E9453000E94280216
:1001500020910C0130910D0140E050E060E070E032
:1001600084E090E00E943D0118BC089508958091BC
:100170007A00806480937A0080917A0086FDFCCFBB
:10018000809178002091790090E0922B25E0289FC3
:10019000B001299F700D1124672F7727669566950A
:1001A00080E090E00E9491022091010130910201D3
:1001B00040910301509104010E94F702089587BD08
:1001C00008950E942D020E945402813019F082305D
:1001D00039F008958091070190910801019705C0B9
:1001E00080910701909108010196909308018093F6
:1001F000070108950E94B7000E94620270930601F1
:100200006093050140910C0150910D01809107010F
:10021000909108010E9478011816190614F017BC75
:1002200005C0959587959595879587BD8091000127
:10023000882311F11092000180E488BD2FEF31EE88
:1002400094E0215030409040E1F700C0000018BC1D
:100250002FEF30E792E0215030409040E1F700C0AE
:10026000000088BD2FEF31EE84E021503040804007
:10027000E1F700C0000018BC0895CF93DF93E901B7
:100280001A821B821C821D82198218829695982FD1
:100290008827979587959F838E839B013695322F6C
:1002A000222737952795398728875695542F442735
:1002B000579547955B874A87BC016F5F7F4F8FEFEC
:1002C0009FE70E948C037D876C872F5F3F4F032E33
:1002D000000C440B550B6FEF7FEF8FEF9FE30E94F5
:1002E000A0032E873F87488B598BDF91CF910895CC
:1002F000EF92FF920F931F93CF93DF938B01FA013D
:100300009C01261B370B848595858217930784F003
:10031000919581959109281739076CF0868197810D
:10032000289FE001299FD00D389FD00D112405C0D2
:10033000CFEFDFE702C0C1E0D0E8C901330FAA0B5D
:10034000BB0B42815381648175819A01AB01280FF7
:10035000391F4A1F5B1F86859785A089B18982173F
:100360009307A407B5074CF482839383A483B583D2
:100370006FEF7FEF8FEF9FE31DC0B095A095909535
:1003800081959F4FAF4FBF4F281739074A075B072B
:100390004CF482839383A483B58361E070E080E0B2
:1003A00090EC08C02283338344835583A085B185B4
:1003B0000E94BF0320813181201B310BA285B385B0
:1003C0002A9F70012B9FF00C3A9FF00C112411838F
:1003D00000838E01DD0F220B330BAB01BC01400FFC
:1003E000511F621F731FC7010F2C000CAA0BBB0B00
:1003F0008A019B01080F191F2A1F3B1FC901B80161
:1004000020E830E040E050E00E94A003213010E8F6
:1004100031071FEF4107510724F421E030E84FEF87
:100420005FEFDA01C901811520E89207A105B10546
:1004300024F08FEF9FE7A0E0B0E0CDB7DEB7E6E0B5
:100440000C94D303FC011282138214821582089546
:1004500020982098289828980895189B02C022E098
:1004600001C020E01899246080910A01422F50E0D9
:10047000837090E048175907B1F090910A0134E079
:10048000939FC0011124822B80930A0180910A015D
:10049000813E11F481E005C080910A01823D19F48A
:1004A00082E080930B01089580910B0110920B0163
:1004B00008950E949E000E94E1000E94FA0080E0E0
:1004C00090E008950E94D60288F09F5798F0B92FC7
:1004D0009927B751B0F0E1F0660F771F881F991F79
:1004E0001AF0BA95C9F714C0B13091F00E94F00229
:1004F000B1E008950C94F002672F782F8827B85F39
:1005000039F0B93FCCF3869577956795B395D9F7D0
:100510003EF490958095709561957F4F8F4F9F4FDA
:100520000895E89409C097FB3EF4909580957095E6
:1005300061957F4F8F4F9F4F9923A9F0F92F96E92F
:10054000BB279395F695879577956795B795F111A4
:10055000F8CFFAF4BB0F11F460FF1BC06F5F7F4F41
:100560008F4F9F4F16C0882311F096E911C0772353
:1005700021F09EE8872F762F05C0662371F096E85C
:10058000862F70E060E02AF09A95660F771F881F2B
:10059000DAF7880F9695879597F9089557FD905843
:1005A000440F551F59F05F3F71F04795880F97FB37
:1005B000991F61F09F3F79F08795089512161306F1
:1005C0001406551FF2CF4695F1DF08C01616170620
:1005D0001806991FF1CF8695710561050894089555
:1005E000E894BB2766277727CB0197F908950E94E7
:1005F0000A030C947B030E946D0338F00E9474037D
:1006000020F0952311F00C9464030C946A031124D8
:100610000C94F1020E94CE0270F3959FC1F3950FE6
:1006200050E0551F629FF001729FBB27F00DB11D76
:10063000639FAA27F00DB11DAA1F649F6627B00D06
:10064000A11D661F829F2227B00DA11D621F739FEF
:10065000B00DA11D621F839FA00D611D221F749FFD
:100660003327A00D611D231F849F600D211D822F44
:10067000762F6A2F11249F5750409AF0F1F088236B
:100680004AF0EE0FFF1FBB1F661F771F881F915098
:100690005040A9F79E3F510580F00C9464030C94E0
:1006A000F1025F3FE4F3983ED4F386957795679522
:1006B000B795F795E7959F5FC1F7FE2B880F911DC2
:1006C0009695879597F9089597F99F6780E870E068
:1006D00060E008959FEF80EC089500240A941616B8
:1006E000170618060906089500240A941216130620
:1006F000140605060895092E0394000C11F48823AE
:1007000052F0BB0F40F4BF2B11F460FF04C06F5FC9
:100710007F4F8F4F9F4F089597FB072E16F400943D
:1007200007D077FD09D00E94E20307FC05D03EF414
:10073000909581959F4F0895709561957F4F08958D
:10074000052E97FB1EF400940E94B70357FD07D0B7
:100750000E94F60307FC03D04EF40C94B7035095A7
:100760004095309521953F4F4F4F5F4F089590959D
:100770008095709561957F4F8F4F9F4F0895B7FF7C
:100780000C9418040E941804821B930B08952A8865
:10079000398848885F846E847D848C849B84AA8495
:1007A000B984C884DF80EE80FD800C811B81AA8122
:1007B000B981CE0FD11D0FB6F894DEBF0FBECDBFED
:1007C000ED010895AA1BBB1B51E107C0AA1FBB1F67
:1007D000A617B70710F0A61BB70B881F991F5A95CD
:1007E000A9F780959095BC01CD010895A1E21A2E3C
:1007F000AA1BBB1BFD010DC0AA1FBB1FEE1FFF1FC5
:10080000A217B307E407F50720F0A21BB30BE40B14
:10081000F50B661F771F881F991F1A9469F760955B
:100820007095809590959B01AC01BD01CF01089515
:100830000E942304A59F900DB49F900DA49F800D4E
:10084000911D11240895A29FB001B39FC001A39FE1
:10085000700D811D1124911DB29F700D811D1124F9
:08086000911D0895F894FFCFEB
:0A0868000100005C421400FA0000D9
:00000001FF
