:100000000C9434000C9451000C9451000C94510049
:100010000C9451000C9451000C9451000C9451001C
:100020000C9451000C9451000C9451000C9451000C
:100030000C9451000C9451000C9426010C94510026
:100040000C9451000C9451000C9451000C945100EC
:100050000C9451000C9451000C9451000C945100DC
:100060000C9451000C94510011241FBECFEFD8E026
:10007000DEBFCDBF11E0A0E0B1E0E2E7F2E102C0F7
:1000800005900D92AE36B107D9F721E0AEE6B1E0AA
:1000900001C01D92AD3AB207E1F70E9449050C94E8
:1000A00037090C940000529A5A98089580910001E3
:1000B000811105C05A9A81E08093000108955A98F1
:1000C0001092000108952DE731E049E150E069E127
:1000D00070E080E09AE00E9478010895F89415BCE1
:1000E00017BC84B5826084BD8CE787BDEEE6F0E086
:1000F00080818260808385B5836085BD7894089512
:100100003898ECE7F0E0108280818E7F80838081D8
:100110008D7F808380818B7F80838081877F8083B8
:10012000808180648083EAE7F0E0108280818E7FA6
:10013000808380818260808380818B7F80838081C7
:1001400080688083089583E38093C4001092C50083
:100150008EE08093C20088E18093C1000895539A95
:10016000E0EBF0E080818062808380818F7E8083FD
:10017000808181608083808182608083E1EBF0E018
:100180008081877F808380818460808380818D7F70
:10019000808380818E7F808388EC8093B400089573
:1001A000F8949091C00095FFFCCF8093C60078949E
:1001B0000895CF93DF93EC018991882319F00E9471
:1001C000D000FACFDF91CF910895F89480917A0012
:1001D000806480937A0080917A0086FDFCCF8091C4
:1001E00078002091790030E0322F2227A901330FC7
:1001F000660B770B9A01AB01282BA4EFB1E00E94AC
:1002000095089B01AC016AE056954795379527956F
:100210006A95D1F72093730130937401409375016F
:1002200050937601A0E5B0E00E94950824E630E006
:1002300040E050E00E9454082093030130930401F1
:100240004093050150930601789408951F920F92F0
:100250000FB60F9211248F939F93AF93BF93F8948F
:100260008091770190917801A0917901B0917A0104
:100270000196A11DB11D8093770190937801A09301
:100280007901B0937A017894BF91AF919F918F914A
:100290000F900FBE0F901F9018953A983B98429A76
:1002A000439A089586B182FB222720F93399226070
:1002B00090917B01622F70E0492F437050E06417EA
:1002C000750781F034E0939FC0011124822B809345
:1002D0007B01813E11F481E003C0823D19F48FEF70
:1002E00080937C01089580917C0110927C01089597
:1002F000CF93DF93E9011A821B821C821D8219822F
:1003000018829695982F8827979587959F838E8337
:100310009B013695322F22273795279539872887D5
:100320005695542F4427579547955B874A87BC01BC
:100330006F5F7F4F8FEF9FE70E9440087D876C873C
:100340002F5F3F4F032E000C440B550B6FEF7FEFD9
:100350008FEF9FE30E9476082E873F87488B598B4B
:10036000DF91CF910895EF92FF920F931F93CF9358
:10037000DF938B01FA019C01261B370B8485958541
:100380008217930784F09195819591092817390771
:100390006CF086819781289FE001299FD00D389FBE
:1003A000D00D112405C0CFEFDFE702C0C1E0D0E8D7
:1003B000C901330FAA0BBB0B428153816481758144
:1003C0009A01AB01280F391F4A1F5B1F868597854D
:1003D000A089B18982179307A407B5074CF48283DB
:1003E0009383A483B5836FEF7FEF8FEF9FE31DC0EF
:1003F000B095A095909581959F4FAF4FBF4F28170F
:1004000039074A075B074CF482839383A483B5833F
:1004100061E070E080E090EC08C022833383448385
:100420005583A085B1850E94A00820813181201BC1
:10043000310BA285B3852A9F70012B9FF00C3A9F48
:10044000F00C1124118300838E01DD0F220B330B7E
:10045000AB01BC01400F511F621F731FC7010F2C5E
:10046000000CAA0BBB0B8A019B01080F191F2A1F46
:100470003B1FC901B80120E830E040E050E00E9495
:100480007608213010E831071FEF4107510724F4A7
:1004900021E030E84FEF5FEFDA01C901811520E874
:1004A0009207A105B10524F08FEF9FE7A0E0B0E02F
:1004B000CDB7DEB7E6E00C94D008FC0112821382BF
:1004C00014821582089598E041E050E038B1BA01F5
:1004D0000090A50102C0660F771F0A94E2F7262F4D
:1004E0002095232328B96091AB0180FF08C078B123
:1004F0009A0101C0220F6A95EAF7272B0AC038B18A
:10050000FA0102C0EE0FFF1F6A95E2F72E2F209529
:10051000232328B9F8E0FA95F1F78595E8B121E0B1
:1005200030E0BA010090A50102C0660F771F0A945F
:10053000E2F76E2B68B968E06A95F1F7915031F6F1
:1005400098B1A9010090A50102C0440F551F0A945B
:10055000E2F7842F8095892388B98DE08A95F1F799
:10056000000097B1A9010090AB0102C0440F551FD4
:100570000A94E2F7842F8095892387B90090AB0114
:1005800002C0220F331F0A94E2F786B190E0822363
:100590009323892BD1F787B1282B27B948B181E064
:1005A00090E09C010090A50102C0220F331F0A9425
:1005B000E2F7242B28B9E5E0EA95F1F7000028B12D
:1005C0000090A50102C0880F991F0A94E2F7809558
:1005D000822388B9089548B181E090E09C010090A1
:1005E000A50102C0220F331F0A94E2F7242B28B979
:1005F00048B19C010090AB0102C0220F331F0A9446
:10060000E2F7242B28B925E02A95F1F7000028B15C
:100610000090AB0102C0880F991F0A94E2F7809501
:10062000822388B9089538B181E090E0AC01009050
:10063000A50102C0440F551F0A94E2F7242F20950C
:10064000232328B925E02A95F1F7000038B1AC0141
:100650000090AB0102C0440F551F0A94E2F7242F0B
:100660002095232328B925E02A95F1F7000048B109
:100670009C010090A50102C0220F331F0A94E2F7EB
:10068000242B28B925E02A95F1F7000028B1009025
:10069000AB0102C0880F991F0A94E2F7822B88B938
:1006A0000895FC01AC014C5F5F4FA081AF3711F49E
:1006B000108205C0B0E0A45ABE4F2C912083208147
:1006C00020582193E417F50781F72091A8012130E4
:1006D00069F42091A401233049F0FC01E20FF11DDF
:1006E00080818058808383E08093A4010895E82F5F
:1006F0008091AC01813011F080E001C080E8EF37DB
:1007000029F0F0E0E45AFE4F9081890F0895A4E0AB
:10071000B0E0EDE8F3E00C94B5088E010F5F1F4FD9
:10072000F80124E0F22EF00EDC012D91CD01219391
:10073000FE12FACFC8010E9451030E94EB0280E42E
:100740000E9463020E9413030E94EB028091A601A3
:100750000E946302F80181918F010E946302F012EE
:10076000F9CF0E9413030E94EB028091AA010E941C
:1007700063020E9413032496E5E00C94D108CF9302
:10078000DF93D82F862F0E947703C82F0E94EB0299
:1007900084E40E9463020E9413030E94EB028D2FE7
:1007A000806C0E9463028C2F0E9463020E941303DC
:1007B0000E94EB028091AA010E9463020E9413032F
:1007C000DF91CF910895A4E0B0E0E9EEF3E00C945E
:1007D000B6089C0129513C4F273F3A42C8F597FF84
:1007E0000FC020E129839F7764E670E00E944008F3
:1007F0006A836AE070E00E9440086B838C8321C0AA
:1008000068EE73E00E9440088B01698364E670E043
:100810000E944008FB016A836AE070E00E94400881
:100820006B838C838091A901882359F001151105F0
:1008300041F481E18983EF2B21F48A83672B09F44A
:100840008B8381E08093A901CE0101960E948703EA
:100850002496E4E00C94D2088F929F92AF92BF92BC
:10086000CF92DF92EF92FF920F931F93CF936B0182
:100870007C0120E03CE34CE156E40E94CE071816D0
:100880000CF4BBC020E030EC49E754ECC701B601E2
:100890000E94E10687FDB1C020E030E0A901C70158
:1008A000B6010E94CE07181654F120E030E048EC63
:1008B00052ECC701B6010E94CE0718160CF07AC0A0
:1008C00020E030E040E251E4C701B6010E94D307C6
:1008D0006B017C0120E030E048EC52EC0E94CE0736
:1008E00018160CF069C020E030E040E251E4C70186
:1008F000B6010E94D3076B017C01C1E05EC020E01D
:1009000030E04AE754E4C701B6010E94E10687FFE0
:1009100026C020E030E040E251E4C701B6010E9469
:10092000D3076B017C0120E030E04AE754E40E94E9
:10093000E10687FF16C020E030E040E251E4C70145
:10094000B6010E94D3076B017C0120E030E04AE74A
:1009500054E40E94E10687FD06C0C1E00FC0C3E079
:100960000DC0C2E00BC020E030E040E251E4C7011E
:10097000B6010E94D3076B017C01C0E0C701B6013C
:100980000E94E6068B01072E000C880B990B0E9433
:100990001E079B01AC01C701B6010E94740620E04E
:1009A00030E040E05FE30E94CE071816FCF40F5FD2
:1009B0001F4F1CC0C3E001C0C2E0C701B6010E94C6
:1009C000E6068B01072E000C880B990B0E941E0770
:1009D000A70196010E94740620E030E040E05FE34A
:1009E0000E94CE07181614F401501109C093A401F7
:1009F0001092A901C8010E94E303CF911F910F91AA
:100A0000FF90EF90DF90CF90BF90AF909F908F902E
:100A100008956FE780E00E94BF036FE781E00E94C6
:100A2000BF036FE782E00E94BF036FE783E00E948D
:100A3000BF0308956093A5014093AB0177B121E016
:100A400030E0F90102C0EE0FFF1F4A95E2F7AF0157
:100A5000472B01C0220F6A95EAF7242B27B9809310
:100A6000A80181E08093A90183E08093A4010E9402
:100A7000090508956093A7014093A60188578093C4
:100A8000AA0108959091A801911102C08093AC0130
:100A90000895CF93DF93CDB7DEB728970FB6F894BC
:100AA000DEBF0FBECDBF0E946E000E9453000E94A9
:100AB0004D010E94A3000E94AF000E9480000E948E
:100AC00063001D821E821F821886412C512C320128
:100AD00019821A821B821C82812C912C5401C09095
:100AE0007701D0907801E0907901F0907A01D701F8
:100AF000C60188199909AA09BB09893E9340A10535
:100B0000B10520F00E945600460157010E94520193
:100B10000E9473018F3F31F4809101019091020195
:100B2000019607C0813049F4809101019091020142
:100B300001979093020180930101C0907701D090BA
:100B40007801E0907901F0907A01D701C6012D81FA
:100B50003E814F815885821B930BA40BB50B893BBB
:100B60009B40A105B10508F461C087E091E00E94B7
:100B7000D9004AE060E971E08091010190910201A1
:100B80000E9402090E94D9008DE00E94D00083E1FA
:100B900091E00E94D9004AE060E971E08091730120
:100BA000909174010E9402090E94D9008DE00E9478
:100BB000D0008FE191E00E94D9004AE060E971E045
:100BC00080910301909104010E9402090E94D900C2
:100BD0008DE00E94D0008BE291E00E94D9004AE0B3
:100BE00060E971E080916E0190916F010E940209AD
:100BF0000E94D9008DE00E94D00088E391E00E941D
:100C0000D900809172014AE060E971E090E00E94B1
:100C100002090E94D9008DE00E94D00085E491E095
:100C20000E94D900CD82DE82EF82F886C0907701E3
:100C3000D0907801E0907901F0907A01D701C60157
:100C400084199509A609B709893E9340A105B10504
:100C500020F00E94E50026013701C0907701D09076
:100C60007801E0907901F0907A01D701C6012981DD
:100C70003A814B815C81821B930BA40BB50B893CA1
:100C80009105A105B10508F42ACF60910301709187
:100C900004014DE751E080910101909102010E9411
:100CA000B301092E000CAA0BBB0B80936E0190932D
:100CB0006F01A0937001B0937101B7FF03C0109250
:100CC000720109C027E0B595A795979587952A9554
:100CD000D1F780937201809172018093B400C98230
:100CE000DA82EB82FC82FBCE5058BB27AA270E94F7
:100CF0008C060C9494070E94860738F00E948D079A
:100D000020F039F49F3F19F426F40C9483070EF475
:100D1000E095E7FB0C947D07E92F0E94A50758F3A7
:100D2000BA17620773078407950720F079F4A6F5D0
:100D30000C94C7070EF4E0950B2EBA2FA02D0B01D3
:100D4000B90190010C01CA01A0011124FF27591B10
:100D500099F0593F50F4503E68F11A16F040A22F16
:100D6000232F342F4427585FF3CF46953795279587
:100D7000A795F0405395C9F77EF41F16BA0B620B86
:100D8000730B840BBAF09150A1F0FF0FBB1F661FCD
:100D9000771F881FC2F70EC0BA0F621F731F841F10
:100DA00048F4879577956795B795F7959E3F08F036
:100DB000B0CF9395880F08F09927EE0F97958795F8
:100DC00008950E94590708F481E008950E94ED06F5
:100DD0006894B1110C94C80708950E94AD0788F07B
:100DE0009F5798F0B92F9927B751B0F0E1F0660FEF
:100DF000771F881F991F1AF0BA95C9F714C0B13030
:100E000091F00E94C707B1E008950C94C707672FBF
:100E1000782F8827B85F39F0B93FCCF3869577955E
:100E20006795B395D9F73EF4909580957095619547
:100E30007F4F8F4F9F4F0895E89409C097FB3EF472
:100E400090958095709561957F4F8F4F9F4F992317
:100E5000A9F0F92F96E9BB279395F6958795779595
:100E60006795B795F111F8CFFAF4BB0F11F460FF55
:100E70001BC06F5F7F4F8F4F9F4F16C0882311F0AD
:100E800096E911C0772321F09EE8872F762F05C0C1
:100E9000662371F096E8862F70E060E02AF09A955C
:100EA000660F771F881FDAF7880F9695879597F951
:100EB0000895990F0008550FAA0BE0E8FEEF1616EB
:100EC0001706E807F907C0F012161306E407F5073E
:100ED00098F0621B730B840B950B39F40A2661F0B2
:100EE000232B242B252B21F408950A2609F4A14055
:100EF000A6958FEF811D811D089597F99F6780E862
:100F000070E060E008959FEF80EC089500240A945B
:100F10001616170618060906089500240A941216D4
:100F20001306140605060895092E0394000C11F407
:100F3000882352F0BB0F40F4BF2B11F460FF04C0B4
:100F40006F5F7F4F8F4F9F4F089557FD9058440F0D
:100F5000551F59F05F3F71F04795880F97FB991F18
:100F600061F09F3F79F087950895121613061406D5
:100F7000551FF2CF4695F1DF08C016161706180662
:100F8000991FF1CF86957105610508940895E8943D
:100F9000BB2766277727CB0197F908950E94590749
:100FA00008F48FEF08950E94E6070C9494070E94BE
:100FB000860738F00E948D0720F0952311F00C94DD
:100FC0007D070C94830711240C94C8070E94A50781
:100FD00070F3959FC1F3950F50E0551F629FF0018C
:100FE000729FBB27F00DB11D639FAA27F00DB11DA5
:100FF000AA1F649F6627B00DA11D661F829F22272E
:10100000B00DA11D621F739FB00DA11D621F839FB4
:10101000A00D611D221F749F3327A00D611D231F8A
:10102000849F600D211D822F762F6A2F11249F57D8
:1010300050409AF0F1F088234AF0EE0FFF1FBB1FDB
:10104000661F771F881F91505040A9F79E3F51059A
:1010500080F00C947D070C94C8075F3FE4F3983E42
:10106000D4F3869577956795B795F795E7959F5F44
:10107000C1F7FE2B880F911D9695879597F90895D6
:1010800097FB072E16F4009407D077FD09D00E9435
:10109000DF0807FC05D03EF4909581959F4F089599
:1010A000709561957F4F0895A1E21A2EAA1BBB1B74
:1010B000FD010DC0AA1FBB1FEE1FFF1FA217B30724
:1010C000E407F50720F0A21BB30BE40BF50B661F3A
:1010D000771F881F991F1A9469F7609570958095FE
:1010E00090959B01AC01BD01CF010895052E97FBA2
:1010F0001EF400940E948D0857FD07D00E945408EA
:1011000007FC03D04EF40C948D0850954095309513
:1011100021953F4F4F4F5F4F089590958095709563
:1011200061957F4F8F4F9F4F08950E94F308A59FB1
:10113000900DB49F900DA49F800D911D11240895D2
:10114000B7FF0C9495080E949508821B930B089595
:101150002F923F924F925F926F927F928F929F92C7
:10116000AF92BF92CF92DF92EF92FF920F931F93B5
:10117000CF93DF93CDB7DEB7CA1BDB0B0FB6F89466
:10118000DEBF0FBECDBF09942A88398848885F84A6
:101190006E847D848C849B84AA84B984C884DF8017
:1011A000EE80FD800C811B81AA81B981CE0FD11DFB
:1011B0000FB6F894DEBF0FBECDBFED010895AA1B98
:1011C000BB1B51E107C0AA1FBB1FA617B70710F032
:1011D000A61BB70B881F991F5A95A9F78095909564
:1011E000BC01CD010895A29FB001B39FC001A39F90
:1011F000700D811D1124911DB29F700D811D112450
:10120000911D0895BB274A3031F4992322F4BDE2A1
:10121000909581959F4F0C940E09BB27FB01552794
:10122000AA27880F991FAA1FA41710F0A41B839543
:101230005051B9F7A05DAA3308F0A95DA1930097BA
:1012400079F7B111B1931192CB010C942709DC010C
:10125000FC01672F71917723E1F7329704C07C91ED
:101260006D9370836291AE17BF07C8F30895F89429
:02127000FFCFAE
:1012720001DC00C80000005345545F54454D503A0C
:101282002000004144435F444154413A2000004D54
:1012920045535F54454D503A2000005049445F5633
:1012A200414C55453A20000050574D5F56414C5530
:1012B200453A2000002D2D2D2D2D2D2D2D2D2D2D9E
:1012C2002D2D2D2D2D2D2D2D2D0A00003F065B4F8E
:0E12D200666D7D077F6F777C395E7971400015
:00000001FF
